:0F05B7000D22C0F9A4B0999282F88090BFFFC6C0
:08061900F8E6F5807F647E0025
:0B062100EF1FAC0670011E4C70F622AB
:1004090075A0C075800175A0FF74222539120619DF
:1004190075A0C075800275A0FF74222536120619D1
:1004290075A0C075800475A0FF74222534120619C1
:1004390075A0C075800875A0FF74222538120619A9
:1004490075A0C075801075A0FF7422253B1206198E
:1004590075A0C075802075A0FF7422253512061974
:1004690075A0C075804075A0FF7422253712061942
:1004790075A0C075808075A0FF74222533F8E6F554
:08048900807F647E0002062161
:10063F00438E805389F0758CAE758AFBD28CC28D38
:01064F002288
:03000B0002065F8B
:0D065F00C0E00530E5307002052FD0E0321C
:10000E00E531640160030200BCE532700BE530643B
:10001E000A452F70030200ABE532B4010AE53064E5
:10002E000A452F70028076E532B4020AE530640A82
:10003E00452F70028067E532B4030AE530640A4545
:10004E002F70028058E532B4040AE530640A452F59
:10005E0070028049E532B4050AE530640A452F7016
:10006E0002803AE532B4060AE530640A452F700282
:10007E00802BE532B4070AE530640A452F70028002
:10008E001CE532B4080AE530640A452F7002800D73
:10009E00E532B40919E530640A452F70111204D304
:1000AE0074002532F8A607E4F52FF5300532E53158
:1000BE006405600302016AE532700BE530640A459F
:1000CE002F7003020159E532B4010AE5306432455E
:1000DE002F70028076E532B4020AE5306432452F85
:1000EE0070028067E532B4030AE5306432452F7042
:1000FE00028058E532B4040AE5306432452F7002AE
:10010E008049E532B4050AE5306432452F7002802D
:10011E003AE532B4060AE5306432452F7002802B80
:10012E00E532B4070AE5306432452F7002801CE5D3
:10013E0032B4080AE5306432452F7002800DE53284
:10014E00B40919E5306432452F70111204D37400CE
:10015E002532F8A607E4F52FF5300532E531641E99
:10016E00600302022BE532700BE530640A452F70F6
:10017E000302021AE532B4010DE530B42C08E52F66
:10018E00B4010302021AE532B4020CE530B42C07B6
:10019E00E52FB401028075E532B4030CE530B42CC2
:1001AE0007E52FB401028064E532B4040CE530B4E7
:1001BE002C07E52FB401028053E532B4050CE5306F
:1001CE00B42C07E52FB401028042E532B4060CE5EB
:1001DE0030B42C07E52FB401028031E532B4070CA0
:1001EE00E530B42C07E52FB401028020E532B408C7
:1001FE000CE530B42C07E52FB40102800FE532B4C4
:10020E00091BE530B42C16E52FB401111204D3747A
:10021E00002532F8A607E4F52FF5300532E53164F6
:10022E003C60030202ECE532700BE530640A452FA8
:10023E0070030202DBE532B4010DE530B45808E577
:10024E002FB402030202DBE532B4020CE530B458DF
:10025E0007E52FB402028075E532B4030CE530B425
:10026E005807E52FB402028064E532B4040CE53081
:10027E00B45807E52FB402028053E532B4050CE5FD
:10028E0030B45807E52FB402028042E532B4060CB2
:10029E00E530B45807E52FB402028031E532B407D9
:1002AE000CE530B45807E52FB402028020E532B4D5
:1002BE00080CE530B45807E52FB40202800FE53282
:1002CE00B4091BE530B45816E52FB402111204D34D
:0F02DE0074002532F8A607E4F52FF5300532221B
:1002ED00E521703A20B30330B3FD75390B75360B2C
:1002FD0075340B75380B753B0B75350AE53175F09B
:10030D000A84F537E53175F00A8485F03330B20390
:10031D0002040875210130B20302040880F8E521BA
:10032D006401705CD2AFD2A9E53C7006120553751D
:10033D003C0112000E120576E50A75F00A84F539B6
:10034D00E50A75F00A8485F03675340AE50975F00D
:10035D000A84F538E50975F00A8485F03B75350A90
:10036D00E50875F00A84F537E50875F00A8485F01F
:10037D0033E532640A6003020408752102F5322266
:10038D00E5216402707520B005F52130B1FDE53031
:10039D006405452F701475A0807580FEE530640AE4
:1003AD00452F700CF52FF530800675A0807580FFF8
:1003BD0020B10EC2AFC2A9E4F52FF530053A30B128
:1003CD00FDE53AB40A03E4F53A75390AE53A75F0F4
:1003DD000A84F536E53A75F00A8485F03475380BE4
:1003ED00753B0B75350A7400253AF8E6FF75F00A72
:0C03FD0084F537EF75F00A8485F0332298
:1005EC0075A0C0E4F58075A0807580FF75A0C075FE
:0905FC0080FF75A0FF7580FF224D
:10060500753101E4F53C12063F1205EC1202ED12BC
:04061500040980F85C
:0C05C6000709323B17000000000108008C
:10062C00E4FEC297EF1392A3EFC313FFD2970EBE53
:02063C0008F0C4
:01063E002299
:10052F00C29300C29700D2930012062CED75F00A09
:10053F0084C454F0FFED75F00A84E5F04FFF120606
:04054F002CC2932205
:10049100E4FDC29300C29700D2930012062CE4FF40
:1004A100C297EDC313FD30A303430580D2970FBF5D
:1004B10008EEC29300C29700D29700C2A300D2A354
:1004C10000EDC4540FFFED540FFEEF75F00AA42E9A
:0104D100FF2B
:0104D2002207
:100553007C80E4FD7F8E12052FE4FBAF0474092B2E
:10056300F8E6FD12052F0C0C0BBB07EF7D807F8E89
:0305730002052F4F
:100576007C81E4FD7F8E12052FE4FBAF041204910B
:1005860074082BF8A6070C0C0BBB07EF7D807F8E3B
:0305960002052F2C
:040650007F327E0077
:0B065400EF1FAC0670011E4C70F62278
:02059900AD07AC
:10059B00E4FBC294ED139294120650D294EDC31364
:0C05AB00FD0BBB08ED7F327E0002065401
:1005D200E4FBC294EDC313FDD2943094034305802F
:0905E2001206500BBB08EBAF053B
:0105EB0022ED
:10050800C200D2947F787E00120654C2947F207E67
:1005180003120654D2947F647E00120654A2949269
:0605280000120650A200C3
:01052E0022AA
:1004D3001205087FCC1205997F441205997FC87EC7
:1004E300001206541205087FCC1205997FBE12052F
:1004F300991205D2AA071205D2EFC454F0FFEAC439
:04050300540F420748
:0105070022D1
:00000001FF
