:1014580020496F54206578706572696D656E7420D7
:011468000083
:100A1B007FC87E001213E4121422121480120DCC24
:100A2B001212E6121446121373121469121489125D
:100A3B0012967BFF7A147958E4FDFF120CAFD2AFFC
:100A4B00D28CE4F515752B01F52CE51660FCE4F55D
:100A5B00161212557F011213528E318F32E5151477
:100A6B0060121460141460161460182404701712AA
:100A7B000FC28012121023800D12108480081211E5
:100A8B00848003120ED6E52CC394144007D200E4E5
:100A9B00F527F52C300031C200E52BB4010F7B019B
:100AAB007A0079E7E4FD7F02120CAF801BE52BB4D3
:100ABB0002167B017A0079E7120F4E7B017A0079DF
:100ACB00E7E4FD7F0212095712130B121476020A88
:010ADB0055C5
:03000B0002140FCD
:10140F00C0E0758CD1758A200516E52C6002052C7D
:03141F00D0E032E8
:0A1476007F011213528E318F3222D3
:09148000439520439420D2A522DB
:03149200C2A522CE
:03149500D2A522BB
:1014220075A15575A1AAE5B954E04407F5B9E4F5EB
:01143200A118
:011433002296
:1013E400EF1FAC0670011E4C600B7D1F7CFA00DC05
:0513F400FEDDFB80EBB3
:0113F90022D1
:10143400EF1FAC0670011E4C60077D0500DDFD80CA
:01144400EFB8
:011445002284
:1014460043C9105389F0438901758CD1758A20D21E
:02145600A922C9
:1012960075985043878043C92053890F4389207529
:1012A6008DB2758BB2C2ABD28ED2AC439702439647
:0812B600024397014396012257
:08000300C2998F993099FD228A
:1013B000ED1DAE0470011C4E601012070CFF1200F0
:0B13C00003740129F9E43AFA80E622E8
:1013CB00C2ACC29912070CFF600C12000374012906
:0913DB00F9E43AFA80EED2AC22EA
:0D14690043F30853F3FC43F32075F22022F7
:10135200E5F654F04FF5F675F210E5F230E5FB755F
:10136200F220E5F4AEF57802CEC313CE13D8F9FF1E
:011372002258
:100DCC004395014394014395024394024395044394
:100DDC009404439508439408439510439410C2A37C
:100DEC007F647E001213E4D2A37F647E001213E4AE
:100DFC007FE21211CD7F057E001213E47F2C1211BD
:100E0C00CD7F057E001213E47F2E1211CD7F057E5F
:100E1C00001213E47F2F1211CD7F057E001213E414
:100E2C007F241211CD7F811211CD7F2A1211CD7F1B
:100E3C00A21211CD7FC81211CD7FA01211CD7F400F
:080E4C001211CD7FAF0211CDA0
:101394008D12EF24B0FF1211CDE512C4540F2410A6
:0C13A400FF1211CDE512540FFF0211CD15
:1012E600E4F508E4FDAF08121394E4F509E4FF12EF
:1012F60010FD0509E509C3948440F20508E508C315
:04130600940840DF28
:01130A0022C0
:041135008F218D2257
:10113900E4F523EBC394204041EBD3947E503BEB81
:1011490024E0F524E4F526E5212526FFAD22121336
:1011590094E4F525E52675F008A47C002525FFEC27
:1011690035F0FEE5241210E20525E525C394084073
:0A117900E30526E526C3940240CDED
:011183002249
:0A0CAF008F088D098B0A8A0B890C4F
:100CB900E4F50D850811AB0AAA0BA90C850D8275FF
:100CC9008300120725FFD39400406BEF9420406105
:100CD900EFD3947E505BEF24E0F50EE4F510E508C0
:100CE9002510FFAD09121394E4F50FE51075F0080E
:100CF900A47C00250FFFEC35F0FEE50E1210E2058D
:100D09000FE50FC3940840E30510E510C3940240B2
:100D1900CD050D74082509F509C394804098E4F5BB
:100D29000905080508E5089408408B851108020C97
:060D3900BF050D020CBF16
:010D3F002291
:0A0957008F088D098B0A8A0B890CAA
:10096100850811E4F50DAB0AAA0BA90C9000011240
:1009710007252401FFE433FEC3E50D9FEE6480F8F3
:100981007480984003020A1A850D8275830012074C
:1009910025FFD394204005EF947E4011AB0AAA0BAA
:1009A100A90C850D82758300742E120752AB0AAA19
:1009B1000BA90C850D8275830012072524E0F50E25
:1009C100E4F510E5082510FFAD09121394E4F50FC5
:1009D100E51075F008A47C00250FFFEC35F0FE75DD
:1009E100F010E50E1210E5050FE50FC3940840E085
:1009F1000510E510C3940240CA74082509F509C31E
:100A010094804010E4F50905080508E508940840BC
:090A110003851108050D020967B7
:010A1A0022B9
:0211CD008F137E
:1011CF00C2A4C2A2E4F514C2A07F027E001214349E
:1011DF00E51330E704D2A18002C2A1D2A07F027E24
:1011EF0000121434AF137E01EF7801088002C3336D
:1011FF00D8FCF513F5130514E514C3940840C8D2B1
:01120F00A43A
:0112100022BB
:1010E20075F010A42426F582E5F03400F583E5823C
:0B10F2002FF582E5833EF583E493FFB9
:0210FD008F1250
:1010FF00C2A4D2A2E4F513C2A07F017E0012143461
:10110F00E51230E704D2A18002C2A1D2A07F017EF6
:10111F0000121434E51225E0F5120513E513C394FC
:05112F000840D4D2A429
:011134002298
:1000260000000000000000000000000000000000CA
:10003600000038FCFC3800000000000D0D00000038
:10004600000E1E00001E0E00000000000000000052
:1000560020F8F820F8F82000020F0F020F0F020018
:10006600387C444747CC9800060C0838380F070000
:1000760030300080C06030000C060301000C0C001C
:1000860080D87CE4BCD84000070F0808070F08009A
:1000960000101E0E0000000000000000000000001E
:1000A6000000F0F80C040000000003070C08000034
:1000B6000000040CF8F000000000080C0703000024
:1000C60080A0E0C0C0E0A08000020301010302009E
:1000D600008080E0E0808000000000030300000054
:1000E60000000000000000000000101E0E000000CE
:1000F600808080808080800000000000000000007A
:1001060000000000000000000000000C0C000000D1
:1001160000000080C06030000C06030100000000F3
:10012600F8F80CC40CF8F00003070C080C070300E1
:10013600001018FCFC0000000008080F0F0808005B
:10014600080C84C4643C18000E0F0908080C0C0047
:10015600080C444444FCB800040C0808080F0700C7
:10016600C0E0B098FCFC8000000000080F0F0800FB
:100176007C7C444444C48400040C0808080F07002F
:10018600F0F84C4444C08000070F0808080F070029
:100196000C0C0484C47C3C0000000F0F000000001F
:1001A600B8FC444444FCB800070F0808080F0700D1
:1001B600387C444444FCF800000808080C07030097
:1001C60000000030300000000000000606000000BD
:1001D60000000030300000000000080E060000009D
:1001E6000080C0603018080000000103060C0800FB
:1001F6000020202020202000000101010101010033
:100206000008183060C0800000080C0603010000DA
:10021600181C04C4E43C18000000000D0D0000008A
:10022600F0F008C8C8F8F000070F080B0B0B010028
:10023600E0F0988C98F0E0000F0F0000000F0F0020
:1002460004FCFC4444FCB800080F0F08080F070024
:10025600F0F80C04040C180003070C08080C060040
:1002660004FCFC040CF8F000080F0F080C07030050
:1002760004FCFC44E40C1C00080F0F08080C0E00DC
:1002860004FCFC44E40C1C00080F0F0800000000EE
:10029600F0F80C84848C980003070C0808070F00FC
:1002A600FCFC404040FCFC000F0F0000000F0F005C
:1002B600000004FCFC0400000000080F0F0800000A
:1002C60000000004FCFC0400070F08080F070000EC
:1002D60004FCFCC0E03C1C00080F0F00010F0E00E0
:1002E60004FCFC0400000000080F0F08080C0E00B8
:1002F600FCFC387038FCFC000F0F0000000F0F00EC
:10030600FCFC3870E0FCFC000F0F0000000F0F0033
:10031600F8FC040404FCF800070F0808080F07009F
:1003260004FCFC44447C3800080F0F080000000061
:10033600F8FC040404FCF800070F080E3C3F2700F5
:1003460004FCFC44C4FC3800080F0F00000F0F002B
:10035600183C6444C49C1800060E0808080F0700E1
:10036600001C0CFCFC0C1C000000080F0F08000011
:10037600FCFC000000FCFC00070F0808080F070043
:10038600FCFC000000FCFC000103060C0603010057
:10039600FCFC000000FCFC00070F0E030E0F07001C
:1003A6000C3CF0E0F03C0C000C0F0301030F0C00BA
:1003B600000C7CC0C07C3C000000080F0F08000049
:1003C6001C0C84C4643C1C000E0F0908080C0E00AB
:1003D6000000FCFC0404000000000F0F08080000E9
:1003E6003870E0C0800000000000000103070E0026
:1003F60000000404FCFC0000000008080F0F0000C9
:10040600080C0603060C08000000000000000000AF
:1004160000000000000000002020202020202020D6
:1004260000000307040000000000000000000000B8
:1004360000A0A0A0E0C00000070F0808070F0800F2
:1004460004FCFC2060C08000000F0F08080F0700A6
:10045600C0E0202020604000070F0808080C0400B8
:1004660080C06024FCFC0000070F0808070F080086
:10047600C0E0A0A0A0E0C000070F0808080C040018
:1004860040F8FC440C180000080F0F08000000009C
:10049600C0E02020C0E02000276F48487F3F0000D2
:1004A60004FCFC4020E0C000080F0F00000F0F0006
:1004B600000020ECEC0000000000080F0F08000010
:1004C6000000000020ECEC0000307040407F3F0050
:1004D60004FCFC80C0602000080F0F01030E0C0016
:1004E600000004FCFC0000000000080F0F080000DC
:1004F600E0E060C060E0C0000F0F0007000F0F00D3
:1005060020E0C02020E0C000000F0F00000F0F0009
:10051600C0E0202020E0C000070F0808080F0700F1
:1005260020E0C02020E0C000407F7F48080F070081
:10053600C0E02020C0E02000070F08487F7F400071
:1005460020E0C06020E0C000080F0F080000000097
:1005560040E0A02020604000040C09090B0E0400B6
:100566002020F8FC202000000000070F080C0400E3
:10057600E0E00000E0E00000070F0808070F0800B1
:1005860000E0E00000E0E0000003070C0C070300B9
:10059600E0E0008000E0E000070F0C070C0F07000A
:1005A6002060C080C0602000080C0703070C08000C
:1005B600E0E0000000E0E000474F4848683F1F00C9
:1005C600606020A0E06020000C0E0B09080C0C00F7
:1005D600004040F8BC040400000000070F080800B3
:1005E600000000BCBC0000000000000F0F0000006F
:1005F600000404BCF84040000008080F0700000093
:10060600080C040C080C04000000000000000000A8
:101373004397104396104397204396204397404347
:101383009640439780439680D2B4D2B5D2B6D2B7B3
:011393002237
:10130B00E5B0440FFF6307FF7834E6FEB5070D0821
:10131B0006E6C39402400C7833A60622E47835F631
:03132B0018A607FA
:01132E00229C
:0914890043C58043C480D28722D0
:10125500C2877F147E001213E4D287E4F508308735
:101265001105087F017E00121434E508D394C840A7
:10127500ED223087FD2087FDE4F5091212BE741BAF
:101285002509F8A6070509E509C3940540EDD287A8
:011295002236
:1012BE00E4F50A3087FD7F327E00121434E50B25EB
:1012CE00E0F50B308706430B012087FD050AE50A82
:0712DE00C3940840DEAF0BD2
:0112E50022E6
:100774002B2B2B0041542B4349504D4F44453D30C6
:100784000D0A002020636F6E6E65637420776966BE
:100794006920200020636F6E6E6563742073657238
:1007A400766572200041542B4349504D4F44453DDA
:1007B400330D0A0041542B43574A41505F44454688
:1007C4003D226D65696C756E5F7375222C2278739A
:1007D4003034353230312E220D0A0020496F542036
:1007E4006578706572696D656E74200041542B43A1
:1007F400495053544152543D22544350222C2261B7
:1008040031646569514B30766E672E696F742D6162
:10081400732D6D7174742E636E2D7368616E6768C9
:1008240061692E616C6979756E63732E636F6D22D5
:100834002C313838330D0A0041542B4349504D4F65
:1008440044453D310D0A0041542B43495053454E14
:10085400440D0A0020636F6E6E65637420636C6FD1
:100864007564202000496F5420636F6E6D6D756E42
:06087400696361742000BD
:100FC2007833E624E0601C24E0602924C0603824E1
:100FD20070704B20014AD201752B017BFF7A077991
:100FE20074800E20013AD201752B017BFF7A0779BA
:100FF200780213CB200129D2017515011212E67B6A
:10100200FF7A0779878011200116D2017515021225
:1010120012E67BFF7A077998E4FDFF020CAFC2016A
:0110220022AB
:101023007833E624E0601C24E0602924C06038247F
:1010330070704B20014AD201752B017BFF7A07792F
:10104300A9800E20013AD201752B017BFF7A077923
:10105300B80213CB200129D201E4F5151212E67B65
:10106300FF7A0779DF8011200116D201751502126C
:1010730012E67BFF7A077998E4FDFF020CAFC20109
:01108300224A
:101084007833E624E0601C24E0602824C060352422
:10109400707048200147D201752B017BFF7A0779D4
:1010A400F0801E200137D201752B017BFF7A08796D
:1010B4003C800E200127D201752B037BFF7A08792F
:1010C4004B0213CB200116D2017515031212E67BD5
:0E10D400FF7A087958E4FDFF020CAFC201223A
:101184007833E624E0601724E0601E24C060202445
:10119400707033200132D201752B02020C1C200125
:1011A40027D201752B0202121120011CD201222028
:1011B4000116D2017515041212E67BFF7A087969CB
:0911C400E4FDFF020CAFC20122A0
:100ED600052AE52A70020529C39410E529942740BE
:100EE6000BE4F529F52A752B0212000E7833E62459
:100EF600E0602024E0602124C06028247070462031
:100F06000145D201E4F529F52A752B02AD32AF1D54
:100F1600020ADC200131800320012CD201E4F529EC
:100F2600F52A22200121D201E4F529F52A752B02A2
:100F36001213FAE4F5151212E67BFF7A0779DFE45D
:080F4600FDFF020CAFC2012205
:03002300020B8449
:100B8400C0E0C083C082C0D075D000C006C00730AA
:100B94009874C29874E72527F582E43400F583E558
:100BA40099F0752C01E52B6402701EE527C39401AE
:100BB4004013E52714FF9000E8E0FEEF9E4002801A
:100BC40032052780410527803DE52B64017024749C
:100BD400E62527F582E43400F583E0B40D1174E7CB
:100BE4002527F582E43400F583E0B40A0280040585
:100BF400278013D200052774E72527F582E4340003
:100C0400F583E4F0F527309902C299D007D006D0D5
:080C1400D0D082D083D0E03281
:10087A007B22737769746368223A317D007B227325
:10088A007769746368223A307D002F613164656943
:10089A00514B30766E672F68617264776172657347
:1008AA00752F757365722F736572766572746F68CA
:1008BA0061726477617265002F6131646569514BB9
:1008CA0030766E672F686172647761726573752F0F
:1008DA00757365722F6861726477617265746F737C
:1008EA00657276657200736A6A317C7365637572C4
:1008FA00656D6F64653D332C7369676E6D657468E9
:10090A006F643D686D6163736861317C0068617210
:10091A0064776172657375266131646569514B301C
:10092A00766E6700343937413545344333334132C3
:10093A00413432333436374135333837314534462A
:0D094A003632393134303744324239300012
:10132F005F00007B2274656D706572617475726504
:10133F00223A32352C226C69676874223A31323581
:02134F007D001F
:100C1C0075306A90001F7410F0E530240AA3F0E4DC
:100C2C00A3F0A37404F0A3744DF0A37451F0A37457
:100C3C0054F0A3F0A37404F0A374C2F0E4A3F0A3E3
:100C4C00743CF0E4A3F0A37426F0782D7C007D01B5
:100C5C007BFF7A0879F07E00FF1206E6E4900053E1
:100C6C00F0A37416F078557C007D017BFF7A09792E
:100C7C00177E00FF1206E6E490006BF0A37428F0D8
:100C8C00786D7C007D017BFF7A09792E7E00FF1246
:100C9C0006E67B017A00791FE530240CFDE433FC79
:030CAC000213B080
:1012110075303090001F7482F0E530240AA3F0E4A9
:10122100A3F0A304F0E4A3F0A3742DF078257C00CF
:101231007D017BFF7A0879947E00FF1206E6E49037
:101241000052F07B017A00791FE530240CFDE43374
:04125100FC0213B0D8
:040ADC008F088D09E9
:100AE000750A2F75301E90001F7430F0E50A25300E
:100AF000A3F0E4A3F0A3742DF078237C007D017BA8
:100B0000FF7A0879C27E00FF1206E6E50875F00A52
:100B10008475F00A84E5F0243090000FF0E5087544
:100B2000F00A84E5F02430A3F0E50975F0648475DB
:100B3000F00A84E5F0243090001AF0E50975F00A17
:100B40008475F00A84E5F02430A3F0E50975F00A15
:100B500084E5F02430A3F078507C007D017B017A9D
:100B60000079007E007F1E1206E67B017A00791F65
:100B7000E50A2402FFE433FE7C00EF2530FDEC3E65
:040B8000FC0213B0B0
:100F4E0012070C6430706C900001120725FF9000A0
:100F5E0003120725F508EF24FFFFE434FFFEAD086A
:100F6E007C00C3EF9DFFEE9CFEED2404FDEC33FCF4
:100F7E00E92DF9EA3CFA78A77C017D011206E675A7
:100F8E000CFF750D08750E7A7B017A0179A7120E8A
:100F9E0054EA494B6003021492750CFF750D0875E7
:100FAE000E877B017A0179A7120E54EA494B600332
:030FBE0012149575
:010FC100220D
:10000E0090001F74C0F0E4A3F07B017A00791F7D8D
:05001E0002FC0213B01A
:1013FA0090001F74E0F0E4A3F07B017A00791F7D6E
:05140A0002FC0213B01A
:03000000020D40AE
:0C0D4000787FE4F6D8FD758135020D8740
:10061600E709F608DFFA8046E709F208DFFA803EC6
:1006260088828C83E709F0A3DFFA8032E309F608B3
:10063600DFFA8078E309F208DFFA807088828C831B
:10064600E309F0A3DFFA806489828A83E0A3F608CF
:10065600DFFA805889828A83E0A3F208DFFA804CA9
:1006660080D280FA80C680D4806980F28033801080
:1006760080A680EA809A80A880DA80E280CA8033E9
:1006860089828A83ECFAE493A3C8C582C8CCC58361
:10069600CCF0A3C8C582C8CCC583CCDFE9DEE78031
:1006A6000D89828A83E493A3F608DFF9ECFAA9F0B0
:1006B600EDFB2289828A83ECFAE0A3C8C582C8CC06
:1006C600C583CCF0A3C8C582C8CCC583CCDFEADE1F
:1006D600E880DB89828A83E493A3F208DFF980CC81
:1006E60088F0EF60010E4E60C388F0ED2402B4047A
:1006F6000050B9F582EB2402B4040050AF23234521
:06070600822390066673D9
:10070C00BB010689828A83E0225002E722BBFE02EB
:09071C00E32289828A83E493221E
:10072500BB010CE58229F582E5833AF583E0225089
:1007350006E92582F8E622BBFE06E92582F8E222D3
:0D074500E58229F582E5833AF583E49322ED
:10075200F8BB010DE58229F582E5833AF583E8F0DD
:10076200225006E92582C8F622BBFE05E92582C889
:02077200F22271
:100E54008B098A0A890BAB0CAA0DA90E12070C6028
:100E640063AB09AA0AA90B12070C605F850C0F85F6
:100E74000D10850E118B128A138914AB0FAA10A9B9
:100E84001112070CFF6023AB12AA13A91412070C4A
:100E94006F7017042511F511E43510F51074012550
:100EA40014F514E43513F51380D1AB0FAA10A9116E
:100EB40012070C7002800D7401250BF50BE4350A42
:100EC400F50A809DAB09AA0AA90B227B007A007956
:020ED4000022FA
:100D4C00020A1BE493A3F8E493A34003F68001F298
:100D5C0008DFF48029E493A3F85407240CC8C333A8
:100D6C00C4540F4420C8834004F456800146F6DF77
:100D7C00E4800B010204081020408090132FE47EC5
:100D8C00019360BCA3FF543F30E509541FFEE4936C
:100D9C00A360010ECF54C025E060A840B8E493A333
:100DAC00FAE493A3F8E493A3C8C582C8CAC583CA5E
:100DBC00F0A3C8C582C8CAC583CADFE9DEE780BE16
:01135100009B
:00000001FF
