:0300000002047D7A
:0C047D00787FE4F6D8FD7581270204C4E6
:0D07F800C0F9A4B0999282F88090BFFFC6AE
:10061B000313000000010C05010800C100C101011A
:10062B000900020A0000011900011600011800015F
:02063B001B00A2
:1007940075A0A0E4F58075A0807580FF75A0C07574
:0907A40080FF75A0FF7580FF22A3
:10021F00EF14600F14602614606224FE6003020264
:10022F00FF80211207C2E51B70028018E51B6401D5
:10023F0060030202FF75170B75100B80571207C270
:10024F00E51B7013E52375F00A84F517E52375F0A8
:10025F000A8485F010803DE51B640160030202FFF4
:10026F00E52375F00A84F517E52375F00A8485F008
:10027F0010750E0A75120B751A0B802C1207C2E53A
:10028F001B703AE52375F00A84F517E52375F00A1C
:10029F008485F010750E0AE52275F00A84F512E5D3
:1002AF002275F00A8485F01A750F0AE52175F00A98
:1002BF0084F511E52175F00A8485F00D22E51BB454
:1002CF00012EE52375F00A84F517E52375F00A84EE
:1002DF0085F010750E0AE52275F00A84F512E522F5
:1002EF0075F00A8485F01A750F0A75110B750D0BD1
:0102FF0022DC
:10030000EF14600F14602314605C24FE600302038A
:10031000D7801BE51B70028015E51B64016003029A
:1003200003D775170B75100B8051E51B7013E5157E
:1003300075F00A84F517E51575F00A8485F01080CC
:100340003AE51B640160030203D7E51575F00A84E2
:10035000F517E51575F00A8485F010750E0A75120B
:100360000B751A0B8029E51B703AE51575F00A84A8
:10037000F517E51575F00A8485F010750E0AE51479
:1003800075F00A84F512E51475F00A8485F01A7583
:100390000F0AE51375F00A84F511E51375F00A8468
:1003A00085F00D22E51BB4012EE51575F00A84F5E4
:1003B00017E51575F00A8485F010750E0AE51475B9
:1003C000F00A84F512E51475F00A8485F01A750FA9
:0803D0000A75110B750D0B22DB
:1007AD00438E805389F0E4F58A758C28C28DD28CE6
:0507BD00D2A9D2AF2219
:03000B00020509E2
:10050900C0E0C0D075D000C0070518050BE50B7019
:1005190002050A0519E51964287020E516B4011BBE
:1005290075190020010AD20175A0807580FE800B23
:10053900300108C20175A0807580FFE50BB4E8148D
:10054900E50AB4030F750A00750B0075160075A04E
:10055900807580FFE518B4C80F751800E51B700495
:0F0569007F0180027F008F1BD007D0D0D0E032FF
:0E05EF0075A0FFEF9007F893F5807F017E0066
:1005FD00D3EF9400EE940040147D4D7C03ED1D70FF
:0D060D00011CED4C70F7EF1F70E61E80E33E
:01061A0022BD
:1006C100AB0575A0C07580011205EF75A0C07580DE
:0F06D1000275A0FFEB93F5807F017E000205FD0F
:1006E000AB0575A0C07580041205EF75A0C07580BC
:0F06F0000875A0FFEB93F5807F017E000205FDEA
:1006FF00AB0575A0C07580101205EF75A0C0758091
:0F070F002075A0FFEB93F5807F017E000205FDB2
:10064700AB0575A0C07580401205EF75A0C0758019
:100657008075A0FFEB1205F675A0C07580FF75A029
:0B066700FF7580FF7F017E000205FD93
:10000E0020B05A7F057E001205FD30B0030201922A
:10001E00E5167033E50C7007750C05F5088036E5AE
:10002E000CB40505750C01802CE50CB40105750C9E
:10003E00028022E50CB40205750C038018E50CB4A1
:10004E000313750C05800EE516B40109E4F516755B
:10005E00A0807580FF30B00302019280F820B15A63
:10006E007F057E001205FD30B103020192E5167088
:10007E0033E5087007750805F50C8036E508B405FC
:10008E0005750801802CE508B4010575080280226B
:10009E00E508B402057508038018E508B403137566
:1000AE000805800EE516B40109E4F51675A08075F5
:1000BE0080FF30B10302019280F830B20302016773
:1000CE007F057E001205FD30B203020192E5167027
:1000DE0075E50CB4010EE523B41705E4F52380286D
:1000EE0005238024E50CB4020EE522B43B05E4F5AD
:1000FE0022800205228011E50CB40311E521B43BE8
:10010E0005E4F5218002052112071E8047E508B49B
:10011E00010EE515B41705E4F51580380515803484
:10012E00E508B4020EE514B43B05E4F5148025058C
:10013E00148021E508B4031CE513B43B05E4F51364
:10014E0080120513800EE516B40109E4F51675A0AC
:10015E00807580FF20B22D80FB20B3287F057E00A6
:10016E001205FD20B31E750901E50CB40502D2007F
:10017E0020B311E516B4010CE4F51675A080758058
:10018E00FF30B3FD20B30302021EE50964016003D4
:10019E0002021EF509E5167069C200E50CB4010DE8
:1001AE00E5237005752317802615238022E50CB4F0
:1001BE00020DE522700575223B800215228010E5A6
:1001CE000CB4030EE521700575213B80021521024A
:1001DE00071EE508B4010BE51570047515172215F9
:1001EE001522E508B4020BE514700475143B2215B4
:1001FE001422E508B40319E513700475133B221598
:10020E001322E516B40109E4F51675A0807580FF7A
:01021E0022BD
:1003D8001207941207AD12071E12073D20000CAF3A
:1003E8000C12021FAF08120300802A30002775176D
:1003F8000B75100B750E0B75120B751A0B1205BACF
:10040800EF75F00A84F50F1205BAEF75F00A8485C6
:10041800F011750D0CE50C6401600BE50C640260CD
:1004280005E50CB40314E521B5130FE522B5140A4C
:10043800E523B5150512000E8019E521B51314E55D
:1004480022B5140FE523B5150A751601E4F519F55B
:100458000AF50B12000EAD10AF171206C1AD12AFA0
:100468000E1206E0AD0FAF1A1206FFAD0DAF111256
:0504780006470203E14C
:09063D000721323B170000000008
:1007D600E4FEC297EF1392A3EFC313FFD2970EBEA8
:0207E60008F019
:0107E80022EE
:04067200E4FD7F8E96
:10067600C29300C29700D293001207D6ED75F00A16
:1006860084C454F0FFED75F00A84E5F04FFF1207BD
:04069600D6C2932213
:10057800E4FDC29300C29700D293001207D6E4FFAD
:10058800C297EDC313FD30A303430580D2970FBF75
:1005980008EEC29300C29700D29700C2A300D2A36C
:1005A80000EDC4540FFFED540FFEEF75F00AA42EB2
:0105B800FF43
:0105B900221F
:10071E007C80120672E4FBAF0474212BF8E6FD1206
:0F072E0006760C0C0BBB07EF7D807F8E020676E4
:10073D007C81120672E4FBAF0412057874212BF84C
:0F074D00A6070C0C0BBB07EF7D807F8E02067694
:1007C200120672E521547FFD7F801206767D807FBE
:0407D2008E02067617
:0407E9007F327E00DD
:0B07ED00EF1FAC0670011E4C70F622DE
:02075C00AD07E7
:10075E00E4FBC294ED1392941207E9D294EDC31305
:0C076E00FD0BBB08ED7F327E000207EDA2
:10077A00E4FBC294EDC313FDD29430940343058085
:09078A001207E90BBB08EBAF05F7
:010793002243
:10069A00C202D2947F787E001207EDC2947F207E38
:1006AA00031207EDD2947F647E001207EDA29492A2
:0606BA00021207E9A20292
:0106C0002217
:1005BA0012069A7FCC12075C7F4412075C7FC87EC2
:1005CA00001207ED12069A7FCC12075C7FBE120753
:1005DA005C12077AAA0712077AEFC454F0FFEAC43A
:0405EA00540F420761
:0105EE0022EA
:100489000203D8E493A3F8E493A34003F68001F2AE
:1004990008DFF48029E493A3F85407240CC8C33374
:1004A900C4540F4420C8834004F456800146F6DF43
:1004B900E4800B010204081020408090061BE47EB2
:1004C900019360BCA3FF543F30E509541FFEE49338
:1004D900A360010ECF54C025E060A840B8E493A3FF
:1004E900FAE493A3F8E493A3C8C582C8CAC583CA2A
:1004F900F0A3C8C582C8CAC583CADFE9DEE780BEE2
:0106460000B3
:00000001FF
