:030000000206C82D
:0C06C800787FE4F6D8FD7581230205431D
:10067300C0F9A4B0999282F88090BFFF40792430EA
:04068300191202FF47
:06068700F583E493F58009
:0B068D000000007F0B7EBEDEFEDFFCE5
:01069800223F
:05000300007F0BDFFE91
:0100080022D5
:0E06AA0000007F057E347DC3DDFEDEFCDFFA3E
:0106B800221F
:10065C00E5A0541F4480F5A07580FFE5A0541F440D
:07066C00A0F5A0E4F58022D7
:1003B700E5A0541F44C0F5A0758001E5A0541F4473
:1003C700E0F5A0EF90067393F58012068DE5A05433
:1003D7001F44C0F5A0758002E5A0541F44E0F5A0B6
:1003E700747F2DF58274063C120687E5A0541F44DE
:1003F700C0F5A0758004E5A0541F44E0F5A0747310
:100407002BF58274063A120687E5A0541F44C0F5FF
:10041700A0758008E5A0541F44E0F5A07473250E6D
:10042700F5827406350D120687E5A0541F44C0F502
:10043700A0758010E5A0541F44E0F5A07473251043
:10044700F5827406350F120687E5A0541F44C0F5E0
:10045700A0758020E5A0541F44E0F5A0747F251205
:10046700F58274063511120687E5A0541F44C0F5BE
:10047700A0758040E5A0541F44E0F5A074732514CF
:10048700F58274063513120687E5A0541F44C0F59C
:10049700A0758080E5A0541F44E0F5A0747325166D
:0F04A700F58274063515F583E493F58002068D12
:1004B60020B01E1206AA30B003020542E5A0541F62
:1004C60044A0F5A0758010D2A9D2AFE4F518F519AD
:1004D6002220B1681206AA20B162E5A0541F44A0EA
:1004E600F5A0E4F580C2A9C2AFAC18AD191201920D
:1004F600E4FBFAF9783F12000E1201CB8F17EFFBDF
:100506007C037DE87E0012024C8F1E7C037DE8AFE3
:10051600037E0012024C7E007F64CFCDCFCECCCEC0
:1005260012024C8F1FE51775F06484E5F075F00A2A
:0D05360084F520E51775F00A8485F0212278
:0F06B900D2A1D2A0120003C2A1120003C2A0223C
:0A06D400C2A1D2A0120003D2A1229D
:10064400EF6004C2A18002D2A1120003D2A0120062
:0806540003C2A0D2A1020003C1
:030629001205EBCC
:10062C00D2A1120003D2A012000330A107C2A01263
:08063C0006D4C322C2A0D322A0
:0205EB00AE0759
:1005ED00E4FDEE30E704D2A18002C2A1120003D2D5
:0E05FD00A0EE25E0FE120003C2A00DBD08E432
:01060B0022CC
:10060C00E4FDD2A0120003EE25E0FE30A103430668
:0C061C0001C2A01200030DBD08E8AF06EB
:0106280022AF
:0205BE00AC0788
:1005C0001206B97F90120629AF041206291206D42A
:1005D0001206B97F911205EB12062C12060CAE071B
:0A05E000E4FF1206441206D4AF0631
:0105EA0022EE
:10069900438E805389F0E4F58A758C28C28DD28CFB
:0106A900222E
:03000B000202AF3F
:1002AF00C0E0C0F0C083C082C0D075D000C000C015
:1002BF0001C002C003C004C005C006C0070522E587
:1002CF00226414600302039CF5220519E5197002DC
:1002DF000518AE18FF7C037DE812024C8F1EAE1876
:1002EF00AF197C037DE812024C7E007F64CFCDCF27
:1002FF00CECCCE12024C8F1FAE18AF197C007D648E
:10030F0012024C7E007F0ACFCDCFCECCCE12024C44
:10031F008F20AE18AF197C007D0A12024C8D21D3AD
:10032F00E519940FE51894274063C2A9C2AFE5A061
:10033F00541F44A0F5A0758000AC18AD19E412014C
:10034F0092E4FBFAF9783F12000E1201CB8F17EFF0
:10035F00FB7C037DE87E0012024C8F1E7C037DE840
:10036F00AF037E0012024C7E007F64CFCDCFCECC88
:10037F00CE12024C8F1FE51775F06484E5F075F00F
:10038F000A84F520E51775F00A8485F021D007D08F
:10039F0006D005D004D003D002D001D000D0D0D0E9
:0803AF0082D083D0F0D0E032CF
:1005430012065C120699751A0BE4F51B751C05F56A
:100553001DF51EF51FF520F5211204B67F011205C6
:10056300BE8F23E52375F03384FCE4120197E4FB8B
:10057300FA79A0783F120114E5A0541F4480500774
:10058300F5A07580FE8005F5A07580FFE51BFD7C59
:1005930000E51CFB7A00750D00851D0E750F0085A7
:1005A3001E10751100851F12751300852014751513
:0B05B30000852116AF1A1203B7809ECE
:10000E00EC4D6011E8497017ED33EC3304600DE4EC
:10001E00FCFFFEFD22E933E8330470F802023712CA
:10002E00020258046009E4CC2481500628500902CB
:10003E00024128400302023EC0E0EB4A7044B98000
:10004E0006D0E0FB02022DEF4E701CBD8008EBFFC8
:10005E00EAFEE9FD80EBE98DF0A4FEE5F00200F783
:10006E00E9CDF9EAFEEBFFEF89F0A4FCE5F0CE89CD
:10007E00F0A42EFFE435F0CD89F0A42DFEE435F08A
:10008E008067EF4E7005BD80D780C3EF8BF0A4ACB8
:10009E00F0EE8BF0A42CFCE435F0F8EF8AF0A42CF3
:1000AE00E5F038FCE433CB8DF0A42CFCE5F03BF806
:1000BE00EE8AF0A42CFCE5F038F8E433CF89F0A4F6
:1000CE002CFCE5F038CF3400CE89F0A42FFFE5F0FC
:1000DE003EFEE433C98DF0A42EFEE5F039CD8AF054
:1000EE00A42FFFE5F03EFEE43DFD33D0E0FB5007CC
:1000FE000BBB000F020241EC2CFCEF33FFEE33FE84
:06010E00ED33FD020219B1
:1001140074F8CC6480CCC86480C8F58204604FC392
:10012400EB9FF5F0EA9E42F0E99D42F0E89C45F031
:10013400603C501DE5825FFFE582D313CB5BCBF4BB
:100144002B5582FB50280ABA002409B900200880E4
:100154001DE5825BFBE582D313CF5FCFF4C3132F7E
:100164005582FF50090EBE00050DBD00010CC3EB06
:100174009FF5F0EA9E42F0E99D42F0E89C45F0606C
:0901840007CC4820E701B3EC228E
:10018D0075F020800E75F010800575F0087D007EED
:10019D00007F003392D530D5031202A1EC3340100D
:1001AD00EF33FFEE33FEED33FDEC33FCD5F0ED22F6
:0E01BD00E5F0247EA2D513CC92E7CDCEFF2232
:1001CB00EDD2E7CD33EC3392D524814006E4FFFE2C
:1001DB00FDFC22FCE4CFCECDCC24E0501174FF808B
:1001EB00EDC3CC13CCCD13CDCE13CECF13CF047028
:0701FB00F030D5DE0202A185
:10020200E9D2E7C933E833F892D5EDD2E7CD33EC42
:0702120033FC5002B2D522BB
:10021900EC30E7100FBF000C0EBE00080DBD000446
:100229000BEB6014A2D5EB13FCED92E7FD2274FFF2
:10023900FCFDFEFF22E480F8A2D574FF13FC7D804B
:03024900E480EF5F
:10024C00BC000BBE0029EF8DF084FFADF022E4CC96
:10025C00F875F008EF2FFFEE33FEEC33FCEE9DEC5F
:10026C00984005FCEE9DFE0FD5F0E9E4CEFD22EDA5
:10027C00F8F5F0EE8420D21CFEADF075F008EF2FEF
:10028C00FFED33FD4007985006D5F0F222C398FDE0
:05029C000FD5F0EA227D
:0E02A100C3E49FFFE49EFEE49DFDE49CFC226E
:00000001FF
