:0300000002000EED
:0C000E00787FE4F6D8FD75813A020055B9
:10036F000D25C0F9A4B0999282F88090BFFFC60105
:10037F00210001220102230000013500C100C1014B
:0E028F0075A0FF74252FF8E6F5807F017E0034
:10029D00D3EF9400EE940040147D4D7C03ED1D7062
:0D02AD00011CED4C70F7EF1F70E61E80E3A2
:0102BA002221
:1003C80075A0A0E4F58075A0807580FF75A0C07544
:0903D80080FF75A0FF7580FF2273
:1003E100758901758A9B758CFFC28DD28CD2A9D279
:0203F100AF2239
:03000B00020233BB
:10023300C0E0C0D0758A9B758CFF0524E52470024D
:100243000523B41014E523B4270F75230075240088
:0E025300E521D3940040021521D0D0D0E03236
:10011F0020003375390A85223675330A75380BAFCF
:10012F00217E007C037DE81201DE8F3AE52175F018
:10013F006484F534E52175F00A84F537E52175F00F
:10014F000A8485F0322230002775390A7536047516
:10015F00330A75380B753A0B120261EF75F00A848A
:10016F00F534120261EF75F00A8485F03775320CA1
:01017F00225D
:10009A0020B32B7F057E0012029D20B31CE522B4FB
:1000AA0001057522028012E522B402057522038039
:1000BA0008E522B4030375220120B35880FB20B25D
:1000CA002E7F057E0012029D20B21FE52170057564
:1000DA00213C8016E521D394004007752178D2018E
:1000EA008008300105E4F521C20120B22780FB20F7
:1000FA00B1107F057E0012029D20B118E4F521C2DD
:10010A00012220B00F7F057E0012029D20B002B2AC
:05011A000030B0FD22E1
:10030900AB0575A0C075800112028F75A0C07580FC
:100319000275A0FF74252BF8E6F5807F017E0002A7
:02032900029D33
:10032B00AB0575A0C075800412028F75A0C07580D7
:10033B000875A0FF74252BF8E6F5807F017E00027F
:02034B00029D11
:10034D00AB0575A0C075801012028F75A0C07580A9
:10035D002075A0FF74252BF8E6F5807F017E000245
:02036D00029DEF
:1002BB00AB0575A0C075804012028F75A0C075800C
:1002CB008075A0FF74252B12029575A0C07580FF59
:0702DB0075A0FF7580FF22F2
:100180001203C81203E112011FE521D39400402796
:10019000E522B4010875A0807580FE8020E522B4B8
:1001A000020875A0807580FD8013E522B4030E75EA
:1001B000A0807580FB800675A0807580FF12009A74
:1001C000AD36AF39120309AD38AF3312032BAD345E
:0E01D000AF3A12034DAD32AF371202BB80A81A
:0403F3007F327E00D7
:0B03F700EF1FAC0670011E4C70F622D8
:02039000AD07B7
:10039200E4FBC294ED1392941203F3D294EDC313CF
:0C03A200FD0BBB08ED7F327E000203F76C
:1003AE00E4FBC294EDC313FDD29430940343058055
:0903BE001203F30BBB08EBAF05C1
:0103C7002213
:1002E200C202D2947F787E001203F7C2947F207EEE
:1002F200031203F7D2947F647E001203F7A2949252
:06030200021203F3A20247
:0103080022D2
:100261001202E27FCC1203907F441203901202E249
:100271007FCC1203907FBE1203901203AEAA071225
:0D02810003AEEFC454F0FFEAC4540F42076F
:01028E00224D
:10001A00020180E493A3F8E493A34003F68001F27B
:10002A0008DFF48029E493A3F85407240CC8C333E7
:10003A00C4540F4420C8834004F456800146F6DFB6
:10004A00E4800B010204081020408090036FE47ED4
:10005A00019360BCA3FF543F30E509541FFEE493AB
:10006A00A360010ECF54C025E060A840B8E493A372
:10007A00FAE493A3F8E493A3C8C582C8CAC583CA9D
:10008A00F0A3C8C582C8CAC583CADFE9DEE780BE55
:01038F00006D
:1001DE00BC000BBE0029EF8DF084FFADF022E4CC05
:1001EE00F875F008EF2FFFEE33FEEC33FCEE9DECCE
:1001FE00984005FCEE9DFE0FD5F0E9E4CEFD22ED14
:10020E00F8F5F0EE8420D21CFEADF075F008EF2F5D
:10021E00FFED33FD4007985006D5F0F222C398FD4E
:05022E000FD5F0EA22EB
:00000001FF
