:030000000202DD1C
:0C02DD00787FE4F6D8FD75812002032430
:10057000FEFDFBF7EFDFBF7F7FBFDFEFF7FBFDFE89
:100580007EBDDBE7E7DBBD7EC0F9A4B0999282F8BF
:040590008090BFFF99
:10051E00010C00010E50011900011000010D000127
:10052E000800010F00021B00000209000001140068
:09053E00010B00011600011E0072
:1006A40075A0A0E4F58075A0807580FF75A0C07565
:0906B40080FF75A0FF7580FF2294
:0406FF007F647E0096
:0B070300EF1FAC0670011E4C70F622C8
:1001980020B03F1206FF20B061E50C7008750C0115
:1001A8007510018023E50C64016011E50C640260A0
:1001B8000BE50C64036005E50CB4040CE510700451
:1001C8007F0180027F008F10C2ABE4F50D20B02ABA
:1001D80080FB20B1251206FF20B11FE50C700375C6
:1001E8000C010508E508B40309E4F508AD0EFF1293
:1001F8000610C2ABE4F50D30B1FD20B2591206FF6E
:1002080020B26EE508B4010FE50EC394F0503D74BA
:1002180014250EF50E8035E5086402702FE50CC331
:1002280094045002050CE50CB40105E4F519801C92
:10023800E50CB402057519088012E50CB4030575C0
:1002480019108008E50CB40403751914C2ABE4F561
:100258000D20B21D80FB20B3181206FF20B31275C3
:100268000B01E50864016009E5086402600375088C
:100278000330B360E50B6401705AF50BE508B4036D
:1002880005E4F5088049E508B4010FE50ED394505C
:10029800403D74EC250EF50E8035E5086402702F9C
:1002A800E50CD394014002150CE50CB40105E4F506
:1002B80019801CE50CB402057519088012E50CB408
:1002C80003057519108008E50CB40403751914C2E8
:0502D800ABE4F50D226E
:10040F00E51064017027D2ABE51EC39516500D752C
:10041F00A080E51990057093F580800675A0807512
:10042F0080FFE51ED39407401CE4F51E22E51070F3
:10043F0014C2AB75A0807580FF75A0C07580FF7565
:06044F00A0FF7580FF22F2
:0E049B0075A0FFEF90058893F5807F017E002D
:1004A900D3EF9400EE940040147D4D7C03ED1D7054
:0D04B900011CED4C70F7EF1F70E61E80E394
:0104C6002213
:10059400AB0575A0C075800112049B75A0C0758061
:0F05A4000275A0FFEB93F5807F017E000204A992
:1005B300AB0575A0C075800412049B75A0C075803F
:0F05C3000875A0FFEB93F5807F017E000204A96D
:1005D200AB0575A0C075801012049B75A0C0758014
:0F05E2002075A0FFEB93F5807F017E000204A936
:1004F300AB0575A0C075804012049B75A0C07580C4
:100503008075A0FFEB1204A275A0C07580FF75A0D3
:0B051300FF7580FF7F017E000204A93D
:10001E008F1FD2A912062F8F14E514C394405005DA
:10002E007516028034E514D3943F400BE514947E8C
:10003E0050057516048022E514D3947D400BE5140B
:10004E0094BC50057516068010E514D394BB400978
:10005E00E51494FF5003751608E51F14601B146019
:10006E006814700302017C24036003020197751A61
:10007E000B75150B75120B8040E50F640170317511
:10008E001A0A850C1575120A75180BE50E75F00512
:10009E00A4FFAEF07C037DE81203697C007D0A129A
:1000AE000369ED4C7006751D0B02013B8D1D807DA5
:1000BE00751A0A850C1575120A75180B751D0B75B8
:1000CE00130B75170B75110B22E50F64017030754C
:1000DE001A0A850C1575120A75180BE50E75F005C2
:1000EE00A4FFAEF07C037DE81203697C007D0A124A
:1000FE000369ED4C7005751D0B80028D1D802E75EC
:10010E001A0B75150B75120B75180BE50E75F005A0
:10011E00A4FFAEF07C037DE81203697C007D0A1219
:10012E000369ED4C7005751D0B80028D1DE50E7576
:10013E00F005A4FBAAF07C007D64FFAE02120369F9
:10014E00EF75F00A8485F0137C007D0AAF03AE02D2
:10015E00120369EF75F00A8485F017E50E75F00548
:10016E00A4FFAEF07C007D0A1203698D1122751A70
:10017E000B75150B75120B75180B751D0B75130B77
:0A018E0075170BE516C313F51122D7
:10064E00438EC0758ACD758CD4C28DD28CE4F58B59
:0E065E00758D28C28FD28ED2ABD2A9D2AF2218
:03000B0002045597
:10045500C0E0C0D075D000C007051CE51C700205C2
:100465001BB42017E51BB40312751B00751C00E5B2
:100475000F70047F0180027F008F0F050AE50A7067
:10048500020509640545097006051EF509F50AD03A
:0604950007D0D0D0E032D8
:03001B000205F1EA
:1005F100C0E0C0D0050DE50DC3950E400D750D0091
:0F0601000519E519B41803751900D0D0D0E032EF
:1003BE001206A412064E120689751A0B75150B75C8
:1003CE00120B75180B751D0B75130B75170B75111D
:1003DE000BE4FF1205488F0E12040FAF0812001E19
:1003EE00120198AD15AF1A120594AD18AF12120581
:1003FE00B3AD13AF1D1205D2AD11AF171204F380BA
:01040E00D716
:04000E00D2A07F05F8
:0800120000AE071FEE70F92299
:0F070E00D2A112000EC2A17F05120012C2A022BA
:0C071D00C2A112000ED2A17F0502001242
:1006D600C2A0A20092A17F0512001212000EC2A0B3
:0706E600D2A17F0502001202
:0806BD0012070E7FA01204C712
:1006C50012000EA2A19200C2A07F05120012A20084
:0106D5002202
:0204C700AD077F
:1004C900E4FCC2A07F05120012ED30E704D2A1803E
:1004D90002C2A17F05120012D2A0ED25E0FD7F0521
:0904E9001200120CBC08DBC2A0D9
:0104F20022E7
:10066C00E4FC12000EED25E0FD30A103430501C2B0
:0C067C00A07F051200120CBC08E8AF05BE
:01068800224F
:1006ED00AD071FED600BE4FEEEC3947050F20E806B
:0106FD00F705
:0106FE0022D9
:10061000AB05AA071206BDAF021204C71206C5AF8A
:0F062000031204C71206C512071D7F140206ED50
:02054800AB07FF
:10054A001206BDAF031204C71206C512070E7FA119
:10055A001204C71206C512066CAD07C2001206D6EF
:05056A0012071DAF05A2
:01056F002269
:1006890012070E7F901204C71206C57F031204C712
:0B0699001206C512071D7F0A0206EDC5
:10062F00C2AF12070E7F911204C71206C512066CD5
:0E063F00AD07D2001206D612071DD2AFAF05CE
:01064D00228A
:1002E9000203BEE493A3F8E493A34003F68001F26A
:1002F90008DFF48029E493A3F85407240CC8C33316
:10030900C4540F4420C8834004F456800146F6DFE4
:10031900E4800B010204081020408090051EE47E51
:10032900019360BCA3FF543F30E509541FFEE493D9
:10033900A360010ECF54C025E060A840B8E493A3A0
:10034900FAE493A3F8E493A3C8C582C8CAC583CACB
:10035900F0A3C8C582C8CAC583CADFE9DEE780BE83
:0105470000B3
:10036900BC000BBE0029EF8DF084FFADF022E4CC78
:10037900F875F008EF2FFFEE33FEEC33FCEE9DEC41
:10038900984005FCEE9DFE0FD5F0E9E4CEFD22ED87
:10039900F8F5F0EE8420D21CFEADF075F008EF2FD1
:1003A900FFED33FD4007985006D5F0F222C398FDC2
:0503B9000FD5F0EA225F
:00000001FF
